:100C8C00202044485431312053797374656D2020F1
:100C9C0000543A20202043202020483A202025527E
:100CAC00480054656D703A2020202D2020202020F3
:100CBC0020200048756D693A2020202D202020200E
:040CCC0020202000C4
:070F46000512525332333251
:100E0100D3EF9400EE94004016E4FDEDC3941B74FF
:0F0E110080948050030D80F3EF1F70E41E80E18A
:010E200022AF
:080F36008F993099FDC2992248
:100E4000D3EF9400EE940040147D6E7C00ED1D7095
:0D0E5000011CED4C70F7EF1F70E61E80E3F3
:010E5D002272
:0C0F2900151C151C151C151C151C151C96
:010F35002299
:100F0700151C151C151C151C151C151C151C151C52
:010F170022B7
:100D0B00E4FEEEC3940874809480502330A0FD124F
:100D1B000F29120F29120F29E4F51130A0037511B9
:0F0D2B000120A0FDEF25E0FFE51142070E80D368
:010D3A002296
:100BD300C2A07F147E00120E40D2A0120F0720A0E5
:100BE3004F30A0FD20A0FD120D0B8F1A120D0B8F9D
:100BF3001B120D0BA907120D0BAD07120D0BD2A083
:100C0300E51BFBE51A2BFBE433FAE97583002BFBA9
:100C1300E5833AFAED2BFBE5833AFAEFB50311E5E9
:100C230083B5020C851A0C851B0E89178D188F0D41
:010C3300229E
:080F3E00E4F5E7F5E3F5E42218
:100E2100AD07AC06E4F5E275E78375E5018CE3ED0A
:0F0E3100F5E475E64675E6B900120F3EAFE22212
:100E5E00AB07AA0675E78375E5028AE3EBF5E48D29
:0B0E6E00E275E64675E6B900020F3E93
:100E9300AD07AC0675E78375E5038CE3EDF5E47503
:090EA300E64675E6B900020F3EB7
:040DDD007F0A7E000B
:100DE100E4FDFCC3ED9FEC9E5015E4FBFA0BBB0048
:0F0DF100010AEB64704A70F50DBD00010C80E43F
:010E000022CF
:100EC500C2A5C2A6C2A78F807F027E00120DE1D205
:070ED500A7120DE1C2A722E4
:100EDC00D2A5C2A6C2A78F807F027E00120DE1D2DE
:070EEC00A7120DE1C2A722CD
:100EF3007F38120EC57F0C120EC57F06120EC57FFA
:040F030001020EC514
:090D9300AF0A120E797D07E4FF9E
:100D9C008F1AA905EF7007E92480FF120EC5E51A1A
:0C0DAC0064017007E924C0FF120EC5228C
:100DB8008B1A8A1B891CAB1AAA1BA91C120EAC60C1
:100DC80013051CE51C7002051B14F9120EACFF126A
:050DD8000EDC80E222A8
:100E7900A907E975F00A842430FF120EDCE975F040
:0A0E89000A84E5F02430FF020EDCBD
:100D6800E4FDFF120D9C7BFF7A0C798C120DB8E420
:100D7800FD7F01120D9C7BFF7A0C799D120DB87DC9
:0B0D8800047F01120D9C7FDF020EDCD7
:060F1800120F1E120F1E55
:0B0F1E000000000000000000000022A6
:100D3B00E4FFFEEEC3940874809480501F3097FD3F
:100D4B00120F18309707D20030970480FBC200EFC8
:0C0D5B0025E0FFA200E43342070E80D721
:010D67002269
:100C3400C2977F147E00120DE1D297120F183097DD
:100C4400FD2097FD120D3BAD07120D3BAC07120DB5
:100C54003BAB07120D3B8F1A120D3BA9073097FDD2
:100C6400D297ED2CFFE433FEEB7583002FFFE58371
:100C74003EFEE51A2FFFE5833EFEE9B50709E5834D
:070C8400B506048B108D0F73
:010C8B002246
:100CD000E510D3950A4006C293D2928011E510C365
:100CE000950B5006C292D2938004D293D292E50F14
:100CF000D395084005C291D29022E50FC3950950C3
:0B0D000005C290D29122D291D2902225
:1008000030B203020A377F01120EC5E4FDFF120D5C
:100810009C7BFF7A0C79AE120DB8E4FD7F01120DBE
:100820009C7BFF7A0C79BF120DB87D06E4FF120D98
:100830009CAF0A120E797D09E4FF120D9CAF0B12DA
:100840000E797D067F01120D9CAF08120E797D098D
:100850007F01120D9CAF09120D957F0F120EC5126C
:100860000DDD30B2FD7F0A7E00804C30B24E20B4E8
:1008700028E50B2401FFE433FED3E50A9FEE6480F4
:10088000F87480984002150A7D06E4FF120D9C1250
:100890000D937F5E7E01120DE120B3CFC3E50A9474
:1008A00037748094805002050A7D06E4FF120D9C87
:1008B000120D937F5E7E01120DE180AF7D0AE4FF91
:1008C000120D9C120DDD30B2FD7F0A7E0080533088
:1008D000B25520B427D3E50B940074809480400275
:1008E000150B7D09E4FF120D9CAF0B120E797D0AEA
:1008F000E4FF120D9C7F5E7E01120DE120B3D0E576
:100900000A14FFE50BC39F5002050B7D09E4FF129B
:100910000D9CAF0B120E797D0AE4FF120D9C7F5ED9
:100920007E01120DE180A87D077F01120D9C120D42
:10093000DD30B2FD7F0A7E00805E30B26020B431CF
:10094000E5092401FFE433FED3E5089FEE6480F857
:10095000748098400215087D067F01120D9CAF0837
:10096000120E797D077F01120D9C7F5E7E01120DB4
:10097000E120B3C6C3E508945F74809480500205FB
:10098000087D067F01120D9CAF08120E797D077F4E
:1009900001120D9C7F5E7E01120DE1809D7D0A7F1C
:1009A00001120D9C120DDD30B2FD7F0A7E008053D6
:1009B00030B25520B427D3E5099400748094804068
:1009C0000215097D097F01120D9CAF09120E797D78
:1009D0000A7F01120D9C7F5E7E01120DE120B3D0D3
:1009E000E50814FFE509C39F500205097D097F0151
:1009F000120D9CAF09120E797D0A7F01120D9C7FAA
:100A00005E7E01120DE180A87F0C120EC5120D68EA
:100A1000120DDD30B2FD120DDD7F007E20120E932F
:100A2000AD0A120E5EAD0B0F120E5EAD080F120E68
:080A30005EAD090F120E5E22FB
:100A3800120EF3120D687F007E20120E218F0A7F9E
:100A480001120E218F0B7F02120E218F087F0312D5
:100A58000E218F09AF0BEF6014E50A2401FDE43382
:100A6800FCD3EF9DEC6480F87480984003750B14F8
:100A7800AF0AEF6009D39437748094804003750AF5
:100A880023AF09EF6014E5082401FDE433FCD3EF3C
:100A98009DEC6480F87480984003750928AF08EFCE
:100AA8006009D3945F7480948040037508557FB0C3
:100AB8007E04120DE1758920758DFD758BFDD28E32
:100AC800759850D2ACD2AFC299C2987F017E0012FD
:100AD8000E01120C347D027F01120D9CAF10120E14
:100AE800797D0B7F01120D9CAF0F120E79120CD07D
:100AF800E4F519C3E519946E74809480500E1208B9
:100B0800007F147E00120DE1051980E7120BD385D2
:100B18000C12850E13851714851815850D16E4FE1D
:100B2800EEC3940574809480500C74122EF8E6FF7E
:0F0B3800120F360E80EA7FD07E07120E40809398
:03000000020B47A9
:0C0B4700787FE4F6D8FD758120020B8E4B
:100EAC00BB010689828A83E0225002E722BBFE0244
:090EBC00E32289828A83E4932277
:100B5300020A38E493A3F8E493A34003F68001F276
:100B630008DFF48029E493A3F85407240CC8C333A3
:100B7300C4540F4420C8834004F456800146F6DF72
:100B8300E4800B0102040810204080900F46E47EAD
:100B9300019360BCA3FF543F30E509541FFEE49367
:100BA300A360010ECF54C025E060A840B8E493A32E
:100BB300FAE493A3F8E493A3C8C582C8CAC583CA59
:100BC300F0A3C8C582C8CAC583CADFE9DEE780BE11
:010F4D0000A3
:00000001FF
