:10039100202044485431312053797374656D2020F5
:1003A10000543A20202043202020483A2020255282
:1003B100480054656D703A2020202D2020202020F7
:1003C10020200048756D693A2020202D2020202012
:0403D10020202000C8
:08057700E4F5E7F5E3F5E422E9
:10049200AD07AC06E4F5E275E78375E5018CE3EDA3
:0F04A200F5E475E64675E6B900120577AFE2227C
:1004B100AB07AA0675E78375E5028AE3EBF5E48DE0
:0B04C100E275E64675E6B9000205771B
:1004E600AD07AC0675E78375E5038CE3EDF5E475BA
:0904F600E64675E6B9000205773F
:04044A007F0A7E00A7
:10044E00E4FDFCC3ED9FEC9E5015E4FBFA0BBB00E4
:0F045E00010AEB64704A70F50DBD00010C80E4DB
:01046D00226C
:10051800C2A5C2A6C2A78F807F027E0012044ED257
:07052800A712044EC2A72236
:10052F00D2A5C2A6C2A78F807F027E0012044ED230
:07053F00A712044EC2A7221F
:100546007F381205187F0C1205187F061205187FD2
:040556000102051881
:09040000AF0A1204CC7D07E4FFF1
:100409008F0FA905E50F7007E92480FF120518E58C
:0C0419000FB40107E924C0FF12051822EF
:100425008B0F8A108911AB0FAA10A9111204FF6056
:10043500130511E5117002051014F91204FFFF12DE
:05044500052F80E222FA
:1004CC00A907E975F00A842430FF12052FE975F0AD
:0A04DC000A84E5F02430FF02052F2A
:1003D500E4FDFF1204097BFF7A037991120425E4F9
:1003E500FD7F011204097BFF7A0379A21204257DA2
:0B03F500047F011204097FDF02052FC6
:06055A00120560120560AD
:0B05600000000000000000000000226E
:10046E00E4FFFE3097FD12055A309707D200309701
:10047E000480FBC200EF25E0FFA200E43342070E2A
:03048E00BE08E0C5
:010491002248
:10033900C2977F147E0012044ED29712055A309745
:10034900FD2097FD12046EAD0712046EAC0712046E
:100359006EAB0712046E8F0F12046EA9073097FD5A
:10036900D297ED2CFFE433FEEB7583002FFFE58375
:100379003EFEE50F2FFFE5833EFEE9B50709E5835C
:07038900B506048B0D8D0C7D
:01039000224A
:1002DC00E50DD3950A4006C293D2928011E50DC369
:1002EC00950B5006C292D2938004D293D292E50C15
:1002FC00D395084006C291D2908011E50CC39509A4
:10030C005006C290D2918004D291D2903091093093
:10031C009006309303209214E4F9C2967F327E004B
:0C032C0012044ED29612044E09B903EEE2
:0103380022A2
:1000030030B20302022A7F01120518E4FDFF120435
:10001300097BFF7A0379B3120425E4FD7F011204FF
:10002300097BFF7A0379C41204257D06E4FF1204D9
:1000330009AF0A1204CC7D09E4FF120409AF0B12C5
:1000430004CC7D067F01120409AF081204CC7D099C
:100053007F01120409AF091204027F0F120518125F
:10006300044A30B2FD7F0A7E00804830B24A20B491
:1000730028E50B2401FFE433FED3E50A9FEE6480F9
:10008300F87480984002150A7D06E4FF12040912F1
:1000930004007F5E7E0112044E20B3CFE50AC394B1
:1000A300375002050A7D06E4FF1204091204007F9B
:1000B3005E7E0112044E80B37D0AE4FF120409122E
:1000C300044A30B2FD7F0A7E00804F30B25120B423
:1000D30023E50BD394004002150B7D09E4FF1204C2
:1000E30009AF0B1204CC7D0AE4FF1204097F5E7E84
:1000F3000112044E20B3D4E50A14FFE50BC39F504D
:1001030002050B7D09E4FF120409AF0B1204CC7D39
:100113000AE4FF1204097F5E7E0112044E80AC7D67
:10012300077F0112040912044A30B2FD7F0A7E00E0
:10013300805A30B25C20B431E5092401FFE433FE78
:10014300D3E5089FEE6480F8748098400215087D1B
:10015300067F01120409AF081204CC7D077F011248
:1001630004097F5E7E0112044E20B3C6E508C394E2
:100173005F500205087D067F01120409AF081204CF
:10018300CC7D077F011204097F5E7E0112044E803D
:10019300A17D0A7F0112040912044A30B2FD7F0ACD
:1001A3007E00804F30B25120B423E509D394004040
:1001B3000215097D097F01120409AF091204CC7DE0
:1001C3000A7F011204097F5E7E0112044E20B3D41C
:1001D300E50814FFE509C39F500205097D097F0166
:1001E300120409AF091204CC7D0A7F011204097FAE
:1001F3005E7E0112044E80AC7F0C1205181203D5EB
:1002030012044A30B2FD12044A7F007E201204E633
:10021300AD0A1204B1AD0B0F1204B1AD080F1204F5
:08022300B1AD090F1204B12274
:10022B001205461203D57F007E201204928F0A7F9F
:10023B00011204928F0B7F021204928F087F03121C
:10024B0004928F09E50B6015E50A2401FFE433FEE8
:10025B00D3E50B9FEE6480F87480984003750B1404
:10026B00E50A6005D394374003750A23E509601549
:10027B00E5082401FFE433FED3E5099FEE6480F823
:10028B007480984003750928E5086005D3945F4096
:10029B00037508557FB07E0412044E1203397D029C
:1002AB007F01120409AF0D1204CC7D0B7F011204E8
:1002BB0009AF0C1204CC1202DCE4F50E1200037F22
:1002CB00147E0012044E050EE50EC3946E40ED80B5
:0102DB00CA58
:0300000002056B8B
:0C056B00787FE4F6D8FD75812002022B99
:1004FF00BB010689828A83E0225002E722BBFE02FB
:09050F00E32289828A83E493222D
:00000001FF
