:0709D100050C5253323332D2
:10096D00D3EF9400EE94004016E4FDEDC3941B7498
:0F097D0080948050030D80F3EF1F70E41E80E123
:01098C002248
:0809C9008F993099FDC29922BB
:10098D00D3EF9400EE940040147D6E7C00ED1D704D
:0D099D00011CED4C70F7EF1F70E61E80E3AB
:0109AA00222A
:0C09BC0015151515151515151515151533
:0109C800220C
:1009AB0015151515151515151515151515151515EC
:0109BB002219
:10093D00E4FEEEC3940874809480502330A0FD1221
:10094D0009BC1209BC1209BCE4F50B30A003750BF0
:0F095D000120A0FDEF25E0FFE50B42070E80D340
:01096C002268
:10088C00C2A07F147E0012098DD2A01209AB20A049
:10089C004F30A0FD20A0FD12093D8F1312093D8F92
:1008AC001412093DA90712093DAD0712093DD2A04A
:1008BC00E514FBE5132BFBE433FAE97583002BFB02
:1008CC00E5833AFAED2BFBE5833AFAEFB50311E534
:1008DC0083B5020C85130885140A89118D128F09B2
:0108EC0022E9
:1008ED00758920758DFD758BFDD28E759850D2ACA6
:1008FD00D2AFC299C2987F017E0012096D12088C89
:10090D0085080C850A0D85110E85120F850910E4D9
:10091D00FEEEC3940574809480500C740C2EF8E692
:10092D00FF1209C90E80EA7FD07E0712098D80CD96
:03000000020800F3
:0C080000787FE4F6D8FD758115020847EA
:10080C000208EDE493A3F8E493A34003F68001F20D
:10081C0008DFF48029E493A3F85407240CC8C333ED
:10082C00C4540F4420C8834004F456800146F6DFBC
:10083C00E4800B01020408102040809009D1E47E72
:10084C00019360BCA3FF543F30E509541FFEE493B1
:10085C00A360010ECF54C025E060A840B8E493A378
:10086C00FAE493A3F8E493A3C8C582C8CAC583CAA3
:10087C00F0A3C8C582C8CAC583CADFE9DEE780BE5B
:0109D800001E
:00000001FF
